:10000000B001B101B201B3018630840080018730B4
:1000100084008001003087002620B00A0A303002B8
:10002000031D0C28B001B10A0A303102031D0C284F
:10003000B101B20A0A303202031D0C28B201B30A20
:100040000A303302031D0C28B3010C2830085B2052
:1000500086000714071031085B208600871487107C
:1000600032085B2086000715071133085B208600E5
:1000700087158711080022085B208600A20A0A3033
:100080002202031D0C2843285520013086005520EC
:10009000860D861B44284728F830A0000000000089
:1000A00000000000A00B512808006430A1004C2083
:1000B000A10B5728080082073F3406345B344F34C5
:0C00C00066346D347D3407347F346F34B7
:02400E00713F00
:00000001FF
